{
  "contractName": "CactusProject",
  "abi": [
    {
      "anonymous": false,
      "inputs": [
        {
          "indexed": true,
          "internalType": "uint256",
          "name": "projectId",
          "type": "uint256"
        },
        {
          "indexed": true,
          "internalType": "uint256",
          "name": "donationId",
          "type": "uint256"
        },
        {
          "indexed": false,
          "internalType": "uint256",
          "name": "amount",
          "type": "uint256"
        },
        {
          "indexed": false,
          "internalType": "address",
          "name": "donor",
          "type": "address"
        }
      ],
      "name": "Donation",
      "type": "event",
      "stateMutability": "nonpayable"
    },
    {
      "anonymous": false,
      "inputs": [
        {
          "indexed": true,
          "internalType": "uint256",
          "name": "projectId",
          "type": "uint256"
        },
        {
          "indexed": false,
          "internalType": "string",
          "name": "name",
          "type": "string"
        },
        {
          "indexed": false,
          "internalType": "string",
          "name": "description",
          "type": "string"
        },
        {
          "indexed": false,
          "internalType": "string",
          "name": "metadataURI",
          "type": "string"
        },
        {
          "indexed": false,
          "internalType": "uint256",
          "name": "deadline",
          "type": "uint256"
        },
        {
          "indexed": false,
          "internalType": "uint256",
          "name": "entirePrice",
          "type": "uint256"
        },
        {
          "indexed": false,
          "internalType": "uint256",
          "name": "minDonation",
          "type": "uint256"
        },
        {
          "indexed": false,
          "internalType": "address",
          "name": "writer",
          "type": "address"
        }
      ],
      "name": "ProjectCreated",
      "type": "event",
      "stateMutability": "nonpayable"
    },
    {
      "inputs": [
        {
          "internalType": "string",
          "name": "_name",
          "type": "string"
        },
        {
          "internalType": "string",
          "name": "_description",
          "type": "string"
        },
        {
          "internalType": "string",
          "name": "_metadataURI",
          "type": "string"
        },
        {
          "internalType": "uint256",
          "name": "_entirePrice",
          "type": "uint256"
        }
      ],
      "name": "createProject",
      "outputs": [
        {
          "internalType": "bool",
          "name": "success",
          "type": "bool"
        }
      ],
      "stateMutability": "nonpayable",
      "type": "function"
    },
    {
      "inputs": [
        {
          "internalType": "uint256",
          "name": "_projectId",
          "type": "uint256"
        }
      ],
      "name": "donate",
      "outputs": [
        {
          "internalType": "bool",
          "name": "success",
          "type": "bool"
        }
      ],
      "stateMutability": "payable",
      "type": "function"
    },
    {
      "inputs": [],
      "name": "listProjects",
      "outputs": [
        {
          "components": [
            {
              "internalType": "string",
              "name": "name",
              "type": "string"
            },
            {
              "internalType": "string",
              "name": "description",
              "type": "string"
            },
            {
              "internalType": "string",
              "name": "metadataURI",
              "type": "string"
            },
            {
              "internalType": "uint256",
              "name": "deadline",
              "type": "uint256"
            },
            {
              "internalType": "uint256",
              "name": "entirePrice",
              "type": "uint256"
            },
            {
              "internalType": "uint256",
              "name": "currentPrice",
              "type": "uint256"
            },
            {
              "internalType": "uint256",
              "name": "minDonation",
              "type": "uint256"
            },
            {
              "internalType": "uint256",
              "name": "amountOfDonations",
              "type": "uint256"
            },
            {
              "internalType": "uint256",
              "name": "totalFunds",
              "type": "uint256"
            },
            {
              "internalType": "address payable",
              "name": "writer",
              "type": "address"
            },
            {
              "internalType": "address payable",
              "name": "purchaser",
              "type": "address"
            },
            {
              "internalType": "uint8",
              "name": "status",
              "type": "uint8"
            }
          ],
          "internalType": "struct CactusProject.Project[]",
          "name": "",
          "type": "tuple[]"
        }
      ],
      "stateMutability": "view",
      "type": "function"
    },
    {
      "inputs": [
        {
          "internalType": "address",
          "name": "_writer",
          "type": "address"
        }
      ],
      "name": "listProjectsByWriter",
      "outputs": [
        {
          "components": [
            {
              "internalType": "string",
              "name": "name",
              "type": "string"
            },
            {
              "internalType": "string",
              "name": "description",
              "type": "string"
            },
            {
              "internalType": "string",
              "name": "metadataURI",
              "type": "string"
            },
            {
              "internalType": "uint256",
              "name": "deadline",
              "type": "uint256"
            },
            {
              "internalType": "uint256",
              "name": "entirePrice",
              "type": "uint256"
            },
            {
              "internalType": "uint256",
              "name": "currentPrice",
              "type": "uint256"
            },
            {
              "internalType": "uint256",
              "name": "minDonation",
              "type": "uint256"
            },
            {
              "internalType": "uint256",
              "name": "amountOfDonations",
              "type": "uint256"
            },
            {
              "internalType": "uint256",
              "name": "totalFunds",
              "type": "uint256"
            },
            {
              "internalType": "address payable",
              "name": "writer",
              "type": "address"
            },
            {
              "internalType": "address payable",
              "name": "purchaser",
              "type": "address"
            },
            {
              "internalType": "uint8",
              "name": "status",
              "type": "uint8"
            }
          ],
          "internalType": "struct CactusProject.Project[]",
          "name": "",
          "type": "tuple[]"
        }
      ],
      "stateMutability": "view",
      "type": "function"
    },
    {
      "inputs": [],
      "name": "owner",
      "outputs": [
        {
          "internalType": "address",
          "name": "",
          "type": "address"
        }
      ],
      "stateMutability": "view",
      "type": "function"
    },
    {
      "inputs": [
        {
          "internalType": "uint256",
          "name": "",
          "type": "uint256"
        },
        {
          "internalType": "uint256",
          "name": "",
          "type": "uint256"
        }
      ],
      "name": "projectDonations",
      "outputs": [
        {
          "internalType": "uint256",
          "name": "",
          "type": "uint256"
        }
      ],
      "stateMutability": "view",
      "type": "function"
    },
    {
      "inputs": [],
      "name": "projectId",
      "outputs": [
        {
          "internalType": "uint256",
          "name": "",
          "type": "uint256"
        }
      ],
      "stateMutability": "view",
      "type": "function"
    },
    {
      "inputs": [
        {
          "internalType": "uint256",
          "name": "",
          "type": "uint256"
        }
      ],
      "name": "projects",
      "outputs": [
        {
          "internalType": "string",
          "name": "name",
          "type": "string"
        },
        {
          "internalType": "string",
          "name": "description",
          "type": "string"
        },
        {
          "internalType": "string",
          "name": "metadataURI",
          "type": "string"
        },
        {
          "internalType": "uint256",
          "name": "deadline",
          "type": "uint256"
        },
        {
          "internalType": "uint256",
          "name": "entirePrice",
          "type": "uint256"
        },
        {
          "internalType": "uint256",
          "name": "currentPrice",
          "type": "uint256"
        },
        {
          "internalType": "uint256",
          "name": "minDonation",
          "type": "uint256"
        },
        {
          "internalType": "uint256",
          "name": "amountOfDonations",
          "type": "uint256"
        },
        {
          "internalType": "uint256",
          "name": "totalFunds",
          "type": "uint256"
        },
        {
          "internalType": "address payable",
          "name": "writer",
          "type": "address"
        },
        {
          "internalType": "address payable",
          "name": "purchaser",
          "type": "address"
        },
        {
          "internalType": "uint8",
          "name": "status",
          "type": "uint8"
        }
      ],
      "stateMutability": "view",
      "type": "function"
    },
    {
      "inputs": [
        {
          "internalType": "uint256",
          "name": "",
          "type": "uint256"
        },
        {
          "internalType": "uint256",
          "name": "",
          "type": "uint256"
        }
      ],
      "name": "purchases",
      "outputs": [
        {
          "internalType": "uint256",
          "name": "",
          "type": "uint256"
        }
      ],
      "stateMutability": "view",
      "type": "function"
    },
    {
      "inputs": [
        {
          "internalType": "address",
          "name": "",
          "type": "address"
        },
        {
          "internalType": "uint256",
          "name": "",
          "type": "uint256"
        }
      ],
      "name": "userDonations",
      "outputs": [
        {
          "internalType": "uint256",
          "name": "",
          "type": "uint256"
        }
      ],
      "stateMutability": "view",
      "type": "function"
    },
    {
      "inputs": [
        {
          "internalType": "address",
          "name": "",
          "type": "address"
        }
      ],
      "name": "userPoints",
      "outputs": [
        {
          "internalType": "uint256",
          "name": "",
          "type": "uint256"
        }
      ],
      "stateMutability": "view",
      "type": "function"
    },
    {
      "inputs": [
        {
          "internalType": "address",
          "name": "",
          "type": "address"
        },
        {
          "internalType": "uint256",
          "name": "",
          "type": "uint256"
        }
      ],
      "name": "userPurchases",
      "outputs": [
        {
          "internalType": "uint256",
          "name": "",
          "type": "uint256"
        }
      ],
      "stateMutability": "view",
      "type": "function"
    }
  ],
  "bytecode": "0x608060405234801561001057600080fd5b50d3801561001d57600080fd5b50d2801561002a57600080fd5b5061003961007d60201b60201c565b6000806101000a81548173ffffffffffffffffffffffffffffffffffffffff021916908373ffffffffffffffffffffffffffffffffffffffff160217905550610085565b600033905090565b6122b280620000956000396000f3fe6080604052600436106100a75760003560e01c8063b57a180d11610064578063b57a180d1461028b578063bf96f317146102e2578063c56f3cac14610339578063cf2c033414610390578063f14faf6f146103e7578063f50ddbc714610417576100a7565b8063107046bd146100ac5780631ca738961461010e5780633fafa127146101655780634933e631146101aa5780634c962f40146102015780638da5cb5b14610246575b600080fd5b3480156100b857600080fd5b50d380156100c557600080fd5b50d280156100d257600080fd5b506100ed60048036038101906100e89190611815565b61046e565b6040516101059c9b9a99989796959493929190611d27565b60405180910390f35b34801561011a57600080fd5b50d3801561012757600080fd5b50d2801561013457600080fd5b5061014f600480360381019061014a919061176a565b6106b3565b60405161015c9190611c88565b60405180910390f35b34801561017157600080fd5b50d3801561017e57600080fd5b50d2801561018b57600080fd5b5061019461095d565b6040516101a19190611e76565b60405180910390f35b3480156101b657600080fd5b50d380156101c357600080fd5b50d280156101d057600080fd5b506101eb60048036038101906101e6919061172e565b610963565b6040516101f89190611e76565b60405180910390f35b34801561020d57600080fd5b50d3801561021a57600080fd5b50d2801561022757600080fd5b50610230610988565b60405161023d9190611c66565b60405180910390f35b34801561025257600080fd5b50d3801561025f57600080fd5b50d2801561026c57600080fd5b50610275610d50565b6040516102829190611c4b565b60405180910390f35b34801561029757600080fd5b50d380156102a457600080fd5b50d280156102b157600080fd5b506102cc60048036038101906102c79190611705565b610d74565b6040516102d99190611c66565b60405180910390f35b3480156102ee57600080fd5b50d380156102fb57600080fd5b50d2801561030857600080fd5b50610323600480360381019061031e919061183e565b6111b9565b6040516103309190611e76565b60405180910390f35b34801561034557600080fd5b50d3801561035257600080fd5b50d2801561035f57600080fd5b5061037a6004803603810190610375919061183e565b6111de565b6040516103879190611e76565b60405180910390f35b34801561039c57600080fd5b50d380156103a957600080fd5b50d280156103b657600080fd5b506103d160048036038101906103cc919061172e565b611203565b6040516103de9190611e76565b60405180910390f35b61040160048036038101906103fc9190611815565b611228565b60405161040e9190611c88565b60405180910390f35b34801561042357600080fd5b50d3801561043057600080fd5b50d2801561043d57600080fd5b5061045860048036038101906104539190611705565b61151d565b6040516104659190611e76565b60405180910390f35b600260205280600052604060002060009150905080600001805461049190612106565b80601f01602080910402602001604051908101604052809291908181526020018280546104bd90612106565b801561050a5780601f106104df5761010080835404028352916020019161050a565b820191906000526020600020905b8154815290600101906020018083116104ed57829003601f168201915b50505050509080600101805461051f90612106565b80601f016020809104026020016040519081016040528092919081815260200182805461054b90612106565b80156105985780601f1061056d57610100808354040283529160200191610598565b820191906000526020600020905b81548152906001019060200180831161057b57829003601f168201915b5050505050908060020180546105ad90612106565b80601f01602080910402602001604051908101604052809291908181526020018280546105d990612106565b80156106265780601f106105fb57610100808354040283529160200191610626565b820191906000526020600020905b81548152906001019060200180831161060957829003601f168201915b5050505050908060030154908060040154908060050154908060060154908060070154908060080154908060090160009054906101000a900473ffffffffffffffffffffffffffffffffffffffff169080600a0160009054906101000a900473ffffffffffffffffffffffffffffffffffffffff169080600a0160149054906101000a900460ff1690508c565b60008082116106f7576040517f08c379a00000000000000000000000000000000000000000000000000000000081526004016106ee90611e36565b60405180910390fd5b600062278d00426107089190611f81565b90506000624c4b40905060405180610180016040528088815260200187815260200186815260200183815260200185815260200185815260200182815260200160008152602001600081526020013373ffffffffffffffffffffffffffffffffffffffff168152602001600073ffffffffffffffffffffffffffffffffffffffff168152602001600260ff1681525060026000600154815260200190815260200160002060008201518160000190805190602001906107c8929190611535565b5060208201518160010190805190602001906107e5929190611535565b506040820151816002019080519060200190610802929190611535565b50606082015181600301556080820151816004015560a0820151816005015560c0820151816006015560e0820151816007015561010082015181600801556101208201518160090160006101000a81548173ffffffffffffffffffffffffffffffffffffffff021916908373ffffffffffffffffffffffffffffffffffffffff16021790555061014082015181600a0160006101000a81548173ffffffffffffffffffffffffffffffffffffffff021916908373ffffffffffffffffffffffffffffffffffffffff16021790555061016082015181600a0160146101000a81548160ff021916908360ff1602179055509050506001600081548092919061090890612138565b919050557f3bac2758dfb680860313153c1c114e3a617804bea3b699f2de895b2fb758b1d8888888868987336040516109479796959493929190611ca3565b60405180910390a2600192505050949350505050565b60015481565b6005602052816000526040600020602052806000526040600020600091509150505481565b6060600060015467ffffffffffffffff8111156109ce577f4e487b7100000000000000000000000000000000000000000000000000000000600052604160045260246000fd5b604051908082528060200260200182016040528015610a0757816020015b6109f46115bb565b8152602001906001900390816109ec5790505b50905060005b600154811015610d48576002600082815260200190815260200160002060405180610180016040529081600082018054610a4690612106565b80601f0160208091040260200160405190810160405280929190818152602001828054610a7290612106565b8015610abf5780601f10610a9457610100808354040283529160200191610abf565b820191906000526020600020905b815481529060010190602001808311610aa257829003601f168201915b50505050508152602001600182018054610ad890612106565b80601f0160208091040260200160405190810160405280929190818152602001828054610b0490612106565b8015610b515780601f10610b2657610100808354040283529160200191610b51565b820191906000526020600020905b815481529060010190602001808311610b3457829003601f168201915b50505050508152602001600282018054610b6a90612106565b80601f0160208091040260200160405190810160405280929190818152602001828054610b9690612106565b8015610be35780601f10610bb857610100808354040283529160200191610be3565b820191906000526020600020905b815481529060010190602001808311610bc657829003601f168201915b505050505081526020016003820154815260200160048201548152602001600582015481526020016006820154815260200160078201548152602001600882015481526020016009820160009054906101000a900473ffffffffffffffffffffffffffffffffffffffff1673ffffffffffffffffffffffffffffffffffffffff1673ffffffffffffffffffffffffffffffffffffffff168152602001600a820160009054906101000a900473ffffffffffffffffffffffffffffffffffffffff1673ffffffffffffffffffffffffffffffffffffffff1673ffffffffffffffffffffffffffffffffffffffff168152602001600a820160149054906101000a900460ff1660ff1660ff1681525050828281518110610d2a577f4e487b7100000000000000000000000000000000000000000000000000000000600052603260045260246000fd5b60200260200101819052508080610d4090612138565b915050610a0d565b508091505090565b60008054906101000a900473ffffffffffffffffffffffffffffffffffffffff1681565b6060600060015467ffffffffffffffff811115610dba577f4e487b7100000000000000000000000000000000000000000000000000000000600052604160045260246000fd5b604051908082528060200260200182016040528015610df357816020015b610de06115bb565b815260200190600190039081610dd85790505b5090506000805b6001548110156111ae578473ffffffffffffffffffffffffffffffffffffffff166002600083815260200190815260200160002060090160009054906101000a900473ffffffffffffffffffffffffffffffffffffffff1673ffffffffffffffffffffffffffffffffffffffff16141561119b576002600082815260200190815260200160002060405180610180016040529081600082018054610e9d90612106565b80601f0160208091040260200160405190810160405280929190818152602001828054610ec990612106565b8015610f165780601f10610eeb57610100808354040283529160200191610f16565b820191906000526020600020905b815481529060010190602001808311610ef957829003601f168201915b50505050508152602001600182018054610f2f90612106565b80601f0160208091040260200160405190810160405280929190818152602001828054610f5b90612106565b8015610fa85780601f10610f7d57610100808354040283529160200191610fa8565b820191906000526020600020905b815481529060010190602001808311610f8b57829003601f168201915b50505050508152602001600282018054610fc190612106565b80601f0160208091040260200160405190810160405280929190818152602001828054610fed90612106565b801561103a5780601f1061100f5761010080835404028352916020019161103a565b820191906000526020600020905b81548152906001019060200180831161101d57829003601f168201915b505050505081526020016003820154815260200160048201548152602001600582015481526020016006820154815260200160078201548152602001600882015481526020016009820160009054906101000a900473ffffffffffffffffffffffffffffffffffffffff1673ffffffffffffffffffffffffffffffffffffffff1673ffffffffffffffffffffffffffffffffffffffff168152602001600a820160009054906101000a900473ffffffffffffffffffffffffffffffffffffffff1673ffffffffffffffffffffffffffffffffffffffff1673ffffffffffffffffffffffffffffffffffffffff168152602001600a820160149054906101000a900460ff1660ff1660ff1681525050838381518110611181577f4e487b7100000000000000000000000000000000000000000000000000000000600052603260045260246000fd5b6020026020010181905250818061119790612138565b9250505b80806111a690612138565b915050610dfa565b508192505050919050565b6004602052816000526040600020602052806000526040600020600091509150505481565b6003602052816000526040600020602052806000526040600020600091509150505481565b6006602052816000526040600020602052806000526040600020600091509150505481565b6000600154821061126e576040517f08c379a000000000000000000000000000000000000000000000000000000000815260040161126590611e56565b60405180910390fd5b6002806000848152602001908152602001600020600a0160149054906101000a900460ff1660ff16146112d6576040517f08c379a00000000000000000000000000000000000000000000000000000000081526004016112cd90611df6565b60405180910390fd5b600260008381526020019081526020016000206006015434101561132f576040517f08c379a000000000000000000000000000000000000000000000000000000000815260040161132690611e16565b60405180910390fd5b60026000838152602001908152602001600020600701600081548092919061135690612138565b9190505550346002600084815260200190815260200160002060080160008282546113819190611f81565b92505081905550346002600084815260200190815260200160002060050160008282546113ae9190612008565b9250508190555034600360008481526020019081526020016000206000600260008681526020019081526020016000206007015481526020019081526020016000208190555034600560003373ffffffffffffffffffffffffffffffffffffffff1673ffffffffffffffffffffffffffffffffffffffff16815260200190815260200160002060006002600086815260200190815260200160002060070154815260200190815260200160002081905550620f42403461146e9190611fd7565b600760003373ffffffffffffffffffffffffffffffffffffffff1673ffffffffffffffffffffffffffffffffffffffff16815260200190815260200160002060008282546114bc9190611f81565b925050819055506002600083815260200190815260200160002060070154827fc31b4d932146491be6ff138655abcdab646f7ed6e66343bf3ad16b45379e9ccb343360405161150c929190611e91565b60405180910390a360019050919050565b60076020528060005260406000206000915090505481565b82805461154190612106565b90600052602060002090601f01602090048101928261156357600085556115aa565b82601f1061157c57805160ff19168380011785556115aa565b828001600101855582156115aa579182015b828111156115a957825182559160200191906001019061158e565b5b5090506115b7919061164b565b5090565b604051806101800160405280606081526020016060815260200160608152602001600081526020016000815260200160008152602001600081526020016000815260200160008152602001600073ffffffffffffffffffffffffffffffffffffffff168152602001600073ffffffffffffffffffffffffffffffffffffffff168152602001600060ff1681525090565b5b8082111561166457600081600090555060010161164c565b5090565b600061167b61167684611eeb565b611eba565b90508281526020810184848401111561169357600080fd5b61169e8482856120c4565b509392505050565b6000813590506116b58161224e565b6116be8161203c565b905092915050565b600082601f8301126116d757600080fd5b81356116e7848260208601611668565b91505092915050565b6000813590506116ff81612265565b92915050565b60006020828403121561171757600080fd5b6000611725848285016116a6565b91505092915050565b6000806040838503121561174157600080fd5b600061174f858286016116a6565b9250506020611760858286016116f0565b9150509250929050565b6000806000806080858703121561178057600080fd5b600085013567ffffffffffffffff81111561179a57600080fd5b6117a6878288016116c6565b945050602085013567ffffffffffffffff8111156117c357600080fd5b6117cf878288016116c6565b935050604085013567ffffffffffffffff8111156117ec57600080fd5b6117f8878288016116c6565b9250506060611809878288016116f0565b91505092959194509250565b60006020828403121561182757600080fd5b6000611835848285016116f0565b91505092915050565b6000806040838503121561185157600080fd5b600061185f858286016116f0565b9250506020611870858286016116f0565b9150509250929050565b60006118868383611afd565b905092915050565b6118978161204e565b82525050565b6118a68161204e565b82525050565b6118b58161203c565b82525050565b60006118c682611f2b565b6118d08185611f4e565b9350836020820285016118e285611f1b565b8060005b8581101561191e57848403895281516118ff858261187a565b945061190a83611f41565b925060208a019950506001810190506118e6565b50829750879550505050505092915050565b61193981612060565b82525050565b600061194a82611f36565b6119548185611f5f565b93506119648185602086016120d3565b61196d8161223d565b840191505092915050565b600061198382611f36565b61198d8185611f70565b935061199d8185602086016120d3565b6119a68161223d565b840191505092915050565b60006119be601483611f70565b91507f50726f6a656374206973206e6f742076616c69640000000000000000000000006000830152602082019050919050565b60006119fe603883611f70565b91507f446f6e6174696f6e20616d6f756e74206973206c657373207468616e2074686560008301527f206d696e696d756d20646f6e6174696f6e20616d6f756e7400000000000000006020830152604082019050919050565b6000611a64602383611f70565b91507f456e74697265207072696365206d75737420626520677265617465722074686160008301527f6e203000000000000000000000000000000000000000000000000000000000006020830152604082019050919050565b6000611aca601983611f70565b91507f50726f6a65637420494420646f6573206e6f74206578697374000000000000006000830152602082019050919050565b6000610180830160008301518482036000860152611b1b828261193f565b91505060208301518482036020860152611b35828261193f565b91505060408301518482036040860152611b4f828261193f565b9150506060830151611b646060860182611c0f565b506080830151611b776080860182611c0f565b5060a0830151611b8a60a0860182611c0f565b5060c0830151611b9d60c0860182611c0f565b5060e0830151611bb060e0860182611c0f565b50610100830151611bc5610100860182611c0f565b50610120830151611bda61012086018261188e565b50610140830151611bef61014086018261188e565b50610160830151611c04610160860182611c2d565b508091505092915050565b611c18816120ad565b82525050565b611c27816120ad565b82525050565b611c36816120b7565b82525050565b611c45816120b7565b82525050565b6000602082019050611c6060008301846118ac565b92915050565b60006020820190508181036000830152611c8081846118bb565b905092915050565b6000602082019050611c9d6000830184611930565b92915050565b600060e0820190508181036000830152611cbd818a611978565b90508181036020830152611cd18189611978565b90508181036040830152611ce58188611978565b9050611cf46060830187611c1e565b611d016080830186611c1e565b611d0e60a0830185611c1e565b611d1b60c08301846118ac565b98975050505050505050565b6000610180820190508181036000830152611d42818f611978565b90508181036020830152611d56818e611978565b90508181036040830152611d6a818d611978565b9050611d79606083018c611c1e565b611d86608083018b611c1e565b611d9360a083018a611c1e565b611da060c0830189611c1e565b611dad60e0830188611c1e565b611dbb610100830187611c1e565b611dc961012083018661189d565b611dd761014083018561189d565b611de5610160830184611c3c565b9d9c50505050505050505050505050565b60006020820190508181036000830152611e0f816119b1565b9050919050565b60006020820190508181036000830152611e2f816119f1565b9050919050565b60006020820190508181036000830152611e4f81611a57565b9050919050565b60006020820190508181036000830152611e6f81611abd565b9050919050565b6000602082019050611e8b6000830184611c1e565b92915050565b6000604082019050611ea66000830185611c1e565b611eb360208301846118ac565b9392505050565b6000604051905081810181811067ffffffffffffffff82111715611ee157611ee061220e565b5b8060405250919050565b600067ffffffffffffffff821115611f0657611f0561220e565b5b601f19601f8301169050602081019050919050565b6000819050602082019050919050565b600081519050919050565b600081519050919050565b6000602082019050919050565b600082825260208201905092915050565b600082825260208201905092915050565b600082825260208201905092915050565b6000611f8c826120ad565b9150611f97836120ad565b9250827fffffffffffffffffffffffffffffffffffffffffffffffffffffffffffffffff03821115611fcc57611fcb612181565b5b828201905092915050565b6000611fe2826120ad565b9150611fed836120ad565b925082611ffd57611ffc6121b0565b5b828204905092915050565b6000612013826120ad565b915061201e836120ad565b92508282101561203157612030612181565b5b828203905092915050565b60006120478261206c565b9050919050565b60006120598261206c565b9050919050565b60008115159050919050565b600073ffffffffffffffffffffffffffffffffffffffff82169050919050565b600074ffffffffffffffffffffffffffffffffffffffffff82169050919050565b6000819050919050565b600060ff82169050919050565b82818337600083830152505050565b60005b838110156120f15780820151818401526020810190506120d6565b83811115612100576000848401525b50505050565b6000600282049050600182168061211e57607f821691505b60208210811415612132576121316121df565b5b50919050565b6000612143826120ad565b91507fffffffffffffffffffffffffffffffffffffffffffffffffffffffffffffffff82141561217657612175612181565b5b600182019050919050565b7f4e487b7100000000000000000000000000000000000000000000000000000000600052601160045260246000fd5b7f4e487b7100000000000000000000000000000000000000000000000000000000600052601260045260246000fd5b7f4e487b7100000000000000000000000000000000000000000000000000000000600052602260045260246000fd5b7f4e487b7100000000000000000000000000000000000000000000000000000000600052604160045260246000fd5b6000601f19601f8301169050919050565b6122578161208c565b811461226257600080fd5b50565b61226e816120ad565b811461227957600080fd5b5056fea2646970667358221220feaf9498f27ceec366d2a75a79f6f9ba84ff7c0181f7cdfdad7f3733a074b5cf64736f6c63430008000033",
  "source": "//SPDX-License-Identifier: MIT\r\npragma solidity ^0.8.0;\r\n\r\nimport \"./Context.sol\";\r\nimport \"./Owner.sol\";\r\n\r\n/** \r\nCactusProject Initial Contract Specifications:\r\n    - Holds data from sustainable projects written by a 'writer' address\r\n    - Allows users to create a project with the required data\r\n    - Allows all users to list all projects\r\n    - Allows all users to list all projects by a specific writer (account)\r\n    - Allows users to donate to a project (in TRX)\r\n    - Allows 1 user to purchase the entire project (in TRX)\r\n    - Allows users to list all project purchases (by project ID)\r\n    - Allows users to list all project donations (by project ID)\r\n    - Allows users to list all project purchases (by user address)\r\n    - Allows users to list all project donations (by user address)\r\n    - Allows the writer to collect all the funds for the project if it has been purchased\r\n    - If the project passed the deadline, the write can not collect the funds. The funds will be returned to the donors.\r\n    - gives points to the donors for their donations (1 point per 1 TRX)\r\n    - gives points to the purchaser for their purchase (2 points times initial project price)\r\n*/\r\n\r\ncontract CactusProject is Owner{\r\n    struct Project {\r\n        // project details\r\n        string name;\r\n        string description;\r\n        string metadataURI; // expects a json at the endpoint\r\n        uint256 deadline; // deadline for the project to be funded by an entire purchase\r\n\r\n        // pricing settings\r\n        uint256 entirePrice;\r\n        uint256 currentPrice; // current price of the project (entirePrice - totalDonated) [private, internal]\r\n        uint256 minDonation;\r\n\r\n        // quantity of donations and totalFunded so far\r\n        uint256 amountOfDonations;\r\n        uint256 totalFunds;\r\n\r\n        // address of the project writer\r\n        address payable writer;\r\n\r\n        // address of the project purchaser\r\n        address payable purchaser;\r\n\r\n        // internal\r\n        // project status/validity\r\n        // 0 = not funded (deadline has passed, return money to donors & blocks all interactions),\r\n        // 1 = funded (give money to the write and block donations and purchases),\r\n        // 2 = valid (not funded, but still within the deadline so allow interactions)\r\n        uint8 status;\r\n    }\r\n\r\n    // project ID\r\n    uint256 public projectId;\r\n\r\n    // project ID => project details\r\n    mapping (uint256 => Project) public projects;\r\n\r\n    // project ID => donation ID => donation details (many donations per project)\r\n    mapping (uint256 => mapping (uint256 => uint256)) public projectDonations;\r\n\r\n    // project ID => purchase ID => purchase details (1 purchase per project)\r\n    mapping (uint256 => mapping (uint256 => uint256)) public purchases;\r\n\r\n    // user address => donation ID => donation details (many donations per user)\r\n    mapping (address => mapping (uint256 => uint256)) public userDonations;\r\n\r\n    // user address => purchase ID => purchase details (1 purchase per user)\r\n    mapping (address => mapping (uint256 => uint256)) public userPurchases;\r\n\r\n    // user address => points\r\n    mapping (address => uint256) public userPoints;\r\n\r\n    function createProject(string memory _name, string memory _description, string memory _metadataURI, uint256 _entirePrice) public returns (bool success) {\r\n        require(_entirePrice > 0, \"Entire price must be greater than 0\");\r\n\r\n        uint256 _deadline = block.timestamp + 30 days;\r\n        uint256 _minDonation = 5 * 10**6; // 5 TRX\r\n\r\n        projects[projectId] = Project({\r\n            name: _name,\r\n            description: _description,\r\n            metadataURI: _metadataURI,\r\n            deadline: _deadline,\r\n            entirePrice: _entirePrice,\r\n            currentPrice: _entirePrice,\r\n            minDonation: _minDonation,\r\n            amountOfDonations: 0,\r\n            totalFunds: 0,\r\n            writer: payable(msg.sender),\r\n            purchaser: payable(address(0)),\r\n            status: 2\r\n        });\r\n\r\n        emit ProjectCreated(projectId++, _name, _description, _metadataURI, _deadline, _entirePrice, _minDonation, msg.sender);\r\n        return true;\r\n    }\r\n\r\n    function listProjects() public view returns (Project[] memory) {\r\n        Project[] memory _projects = new Project[](projectId);\r\n        for (uint256 i = 0; i < projectId; i++) {\r\n            _projects[i] = projects[i];\r\n        }\r\n        return _projects;\r\n    }\r\n\r\n    function listProjectsByWriter(address _writer) public view returns (Project[] memory) {\r\n        Project[] memory _projects = new Project[](projectId);\r\n        uint256 _index = 0;\r\n        for (uint256 i = 0; i < projectId; i++) {\r\n            if (projects[i].writer == _writer) {\r\n                _projects[_index] = projects[i];\r\n                _index++;\r\n            }\r\n        }\r\n        return _projects;\r\n    }\r\n\r\n    function donate(uint256 _projectId) public payable returns (bool success) {\r\n        require(_projectId < projectId, \"Project ID does not exist\");\r\n        require(projects[_projectId].status == 2, \"Project is not valid\");\r\n        require(msg.value >= projects[_projectId].minDonation, \"Donation amount is less than the minimum donation amount\");\r\n\r\n        projects[_projectId].amountOfDonations++;\r\n        projects[_projectId].totalFunds += msg.value;\r\n        projects[_projectId].currentPrice -= msg.value;\r\n\r\n        projectDonations[_projectId][projects[_projectId].amountOfDonations] = msg.value;\r\n        userDonations[msg.sender][projects[_projectId].amountOfDonations] = msg.value;\r\n\r\n        userPoints[msg.sender] += msg.value / 10**6;\r\n\r\n        emit Donation(_projectId, projects[_projectId].amountOfDonations, msg.value, msg.sender);\r\n        return true;\r\n    }\r\n\r\n    event ProjectCreated(uint256 indexed projectId, string name, string description, string metadataURI, uint256 deadline, uint256 entirePrice, uint256 minDonation, address writer);\r\n    event Donation(uint256 indexed projectId, uint256 indexed donationId, uint256 amount, address donor);\r\n}",
  "sourcePath": "C:/Users/wilkn/Desktop/HACKATHON PROJECTS/TRON/CactusChain/contracts/CactusProject.sol",
  "compiler": {
    "name": "solc",
    "version": "0.8.0+commit.7c2e6412.Emscripten.clang"
  },
  "schemaVersion": "2.0.1",
  "updatedAt": "2022-11-11T06:55:06.998Z"
}