{
  "contractName": "Library",
  "abi": [
    {
      "anonymous": false,
      "inputs": [
        {
          "indexed": true,
          "internalType": "uint256",
          "name": "bookId",
          "type": "uint256"
        }
      ],
      "name": "DeleteBook",
      "type": "event"
    },
    {
      "anonymous": false,
      "inputs": [
        {
          "indexed": true,
          "internalType": "uint256",
          "name": "bookId",
          "type": "uint256"
        }
      ],
      "name": "NewBook",
      "type": "event"
    },
    {
      "anonymous": false,
      "inputs": [
        {
          "indexed": true,
          "internalType": "uint256",
          "name": "bookId",
          "type": "uint256"
        },
        {
          "indexed": true,
          "internalType": "uint256",
          "name": "trackingId",
          "type": "uint256"
        }
      ],
      "name": "NewRental",
      "type": "event"
    },
    {
      "inputs": [
        {
          "internalType": "string",
          "name": "name",
          "type": "string"
        },
        {
          "internalType": "string",
          "name": "description",
          "type": "string"
        },
        {
          "internalType": "uint256",
          "name": "price",
          "type": "uint256"
        }
      ],
      "name": "addBook",
      "outputs": [
        {
          "internalType": "bool",
          "name": "success",
          "type": "bool"
        }
      ],
      "stateMutability": "nonpayable",
      "type": "function"
    },
    {
      "inputs": [],
      "name": "bookId",
      "outputs": [
        {
          "internalType": "uint256",
          "name": "",
          "type": "uint256"
        }
      ],
      "stateMutability": "view",
      "type": "function"
    },
    {
      "inputs": [
        {
          "internalType": "uint256",
          "name": "",
          "type": "uint256"
        }
      ],
      "name": "books",
      "outputs": [
        {
          "internalType": "string",
          "name": "name",
          "type": "string"
        },
        {
          "internalType": "string",
          "name": "description",
          "type": "string"
        },
        {
          "internalType": "bool",
          "name": "valid",
          "type": "bool"
        },
        {
          "internalType": "uint256",
          "name": "price",
          "type": "uint256"
        },
        {
          "internalType": "address",
          "name": "owner",
          "type": "address"
        }
      ],
      "stateMutability": "view",
      "type": "function"
    },
    {
      "inputs": [
        {
          "internalType": "uint256",
          "name": "_bookId",
          "type": "uint256"
        },
        {
          "internalType": "uint256",
          "name": "startTime",
          "type": "uint256"
        },
        {
          "internalType": "uint256",
          "name": "endTime",
          "type": "uint256"
        }
      ],
      "name": "borrowBook",
      "outputs": [
        {
          "internalType": "bool",
          "name": "",
          "type": "bool"
        }
      ],
      "stateMutability": "payable",
      "type": "function"
    },
    {
      "inputs": [
        {
          "internalType": "uint256",
          "name": "_bookId",
          "type": "uint256"
        }
      ],
      "name": "deleteBook",
      "outputs": [
        {
          "internalType": "bool",
          "name": "success",
          "type": "bool"
        }
      ],
      "stateMutability": "nonpayable",
      "type": "function"
    },
    {
      "inputs": [],
      "name": "owner",
      "outputs": [
        {
          "internalType": "address",
          "name": "",
          "type": "address"
        }
      ],
      "stateMutability": "view",
      "type": "function"
    },
    {
      "inputs": [],
      "name": "trackingId",
      "outputs": [
        {
          "internalType": "uint256",
          "name": "",
          "type": "uint256"
        }
      ],
      "stateMutability": "view",
      "type": "function"
    },
    {
      "inputs": [
        {
          "internalType": "uint256",
          "name": "",
          "type": "uint256"
        }
      ],
      "name": "trackings",
      "outputs": [
        {
          "internalType": "uint256",
          "name": "bookId",
          "type": "uint256"
        },
        {
          "internalType": "uint256",
          "name": "startTime",
          "type": "uint256"
        },
        {
          "internalType": "uint256",
          "name": "endTime",
          "type": "uint256"
        },
        {
          "internalType": "address",
          "name": "borrower",
          "type": "address"
        }
      ],
      "stateMutability": "view",
      "type": "function"
    }
  ],
  "bytecode": "0x608060405234801561001057600080fd5b50d3801561001d57600080fd5b50d2801561002a57600080fd5b5061003961007d60201b60201c565b6000806101000a81548173ffffffffffffffffffffffffffffffffffffffff021916908373ffffffffffffffffffffffffffffffffffffffff160217905550610085565b600033905090565b6113fc806100946000396000f3fe60806040526004361061007b5760003560e01c8063687440461161004e57806368744046146101cd5780638da5cb5b14610228578063b8f79af41461026d578063e912832d1461029d5761007b565b806304266224146100805780632151fb38146100d757806348cbb2fc1461012e5780634e37d7a014610173575b600080fd5b34801561008c57600080fd5b50d3801561009957600080fd5b50d280156100a657600080fd5b506100c160048036038101906100bc9190610c80565b6102e2565b6040516100ce9190610ede565b60405180910390f35b3480156100e357600080fd5b50d380156100f057600080fd5b50d280156100fd57600080fd5b5061011860048036038101906101139190610cff565b610441565b6040516101259190610ede565b60405180910390f35b34801561013a57600080fd5b50d3801561014757600080fd5b50d2801561015457600080fd5b5061015d6105ac565b60405161016a9190610fba565b60405180910390f35b34801561017f57600080fd5b50d3801561018c57600080fd5b50d2801561019957600080fd5b506101b460048036038101906101af9190610cff565b6105b2565b6040516101c49493929190610fd5565b60405180910390f35b3480156101d957600080fd5b50d380156101e657600080fd5b50d280156101f357600080fd5b5061020e60048036038101906102099190610cff565b610602565b60405161021f959493929190610ef9565b60405180910390f35b34801561023457600080fd5b50d3801561024157600080fd5b50d2801561024e57600080fd5b50610257610775565b6040516102649190610ec3565b60405180910390f35b61028760048036038101906102829190610d28565b610799565b6040516102949190610ede565b60405180910390f35b3480156102a957600080fd5b50d380156102b657600080fd5b50d280156102c357600080fd5b506102cc6108fa565b6040516102d99190610fba565b60405180910390f35b6000806040518060a00160405280868152602001858152602001600115158152602001848152602001610313610900565b73ffffffffffffffffffffffffffffffffffffffff168152509050806002600060015481526020019081526020016000206000820151816000019080519060200190610360929190610b20565b50602082015181600101908051906020019061037d929190610b20565b5060408201518160020160006101000a81548160ff0219169083151502179055506060820151816003015560808201518160040160006101000a81548173ffffffffffffffffffffffffffffffffffffffff021916908373ffffffffffffffffffffffffffffffffffffffff1602179055509050506001600081548092919061040590611268565b919050557f439b490920bee799f40c0c3792d224bcccb954e074515e7aa6d4227b4e7501bd60405160405180910390a260019150509392505050565b60006002600083815260200190815260200160002060040160009054906101000a900473ffffffffffffffffffffffffffffffffffffffff1673ffffffffffffffffffffffffffffffffffffffff16610498610900565b73ffffffffffffffffffffffffffffffffffffffff1614806104be57506104bd610908565b5b6104fd576040517f08c379a00000000000000000000000000000000000000000000000000000000081526004016104f490610f7a565b60405180910390fd5b60026000838152602001908152602001600020600080820160006105219190610ba6565b6001820160006105319190610ba6565b6002820160006101000a81549060ff021916905560038201600090556004820160006101000a81549073ffffffffffffffffffffffffffffffffffffffff02191690555050817fb8f952227d61c2381000a8a7296a617eb69c1a822b43f983ac2d6766ce7e289760405160405180910390a260019050919050565b60035481565b60046020528060005260406000206000915090508060000154908060010154908060020154908060030160009054906101000a900473ffffffffffffffffffffffffffffffffffffffff16905084565b600260205280600052604060002060009150905080600001805461062590611236565b80601f016020809104026020016040519081016040528092919081815260200182805461065190611236565b801561069e5780601f106106735761010080835404028352916020019161069e565b820191906000526020600020905b81548152906001019060200180831161068157829003601f168201915b5050505050908060010180546106b390611236565b80601f01602080910402602001604051908101604052809291908181526020018280546106df90611236565b801561072c5780601f106107015761010080835404028352916020019161072c565b820191906000526020600020905b81548152906001019060200180831161070f57829003601f168201915b5050505050908060020160009054906101000a900460ff16908060030154908060040160009054906101000a900473ffffffffffffffffffffffffffffffffffffffff16905085565b60008054906101000a900473ffffffffffffffffffffffffffffffffffffffff1681565b600080600260008681526020019081526020016000209050600115158160020160009054906101000a900460ff16151514610809576040517f08c379a000000000000000000000000000000000000000000000000000000000815260040161080090610f5a565b60405180910390fd5b6108138484610965565b8160030154610822919061111e565b61082a6109d8565b1461086a576040517f08c379a000000000000000000000000000000000000000000000000000000000815260040161086190610f9a565b60405180910390fd5b61089f8160040160009054906101000a900473ffffffffffffffffffffffffffffffffffffffff1661089a6109d8565b6109e0565b6108aa858585610a2b565b600360008154809291906108bd90611268565b91905055857f629d7c8fe7fba2a110bc96f28bb6482c1a73fd6c84a69c39f55845ddb72a552260405160405180910390a360019150509392505050565b60015481565b600033905090565b6000610912610900565b73ffffffffffffffffffffffffffffffffffffffff1660008054906101000a900473ffffffffffffffffffffffffffffffffffffffff1673ffffffffffffffffffffffffffffffffffffffff1614905090565b6000806201518084846109789190611178565b61098291906112b1565b14156109a9576201518083836109989190611178565b6109a291906110ed565b90506109d2565b60016201518084846109bb9190611178565b6109c591906110ed565b6109cf9190611097565b90505b92915050565b600034905090565b8173ffffffffffffffffffffffffffffffffffffffff166108fc829081150290604051600060405180830381858888f19350505050158015610a26573d6000803e3d6000fd5b505050565b6040518060800160405280848152602001838152602001828152602001610a50610900565b73ffffffffffffffffffffffffffffffffffffffff1681525060046000600354815260200190815260200160002060008201518160000155602082015181600101556040820151816002015560608201518160030160006101000a81548173ffffffffffffffffffffffffffffffffffffffff021916908373ffffffffffffffffffffffffffffffffffffffff160217905550905050600060026000858152602001908152602001600020905060008160020160006101000a81548160ff02191690831515021790555050505050565b828054610b2c90611236565b90600052602060002090601f016020900481019282610b4e5760008555610b95565b82601f10610b6757805160ff1916838001178555610b95565b82800160010185558215610b95579182015b82811115610b94578251825591602001919060010190610b79565b5b509050610ba29190610be6565b5090565b508054610bb290611236565b6000825580601f10610bc45750610be3565b601f016020900490600052602060002090810190610be29190610be6565b5b50565b5b80821115610bff576000816000905550600101610be7565b5090565b6000610c16610c118461104b565b61101a565b905082815260208101848484011115610c2e57600080fd5b610c398482856111f4565b509392505050565b600082601f830112610c5257600080fd5b8135610c62848260208601610c03565b91505092915050565b600081359050610c7a816113af565b92915050565b600080600060608486031215610c9557600080fd5b600084013567ffffffffffffffff811115610caf57600080fd5b610cbb86828701610c41565b935050602084013567ffffffffffffffff811115610cd857600080fd5b610ce486828701610c41565b9250506040610cf586828701610c6b565b9150509250925092565b600060208284031215610d1157600080fd5b6000610d1f84828501610c6b565b91505092915050565b600080600060608486031215610d3d57600080fd5b6000610d4b86828701610c6b565b9350506020610d5c86828701610c6b565b9250506040610d6d86828701610c6b565b9150509250925092565b610d80816111ac565b82525050565b610d8f816111be565b82525050565b6000610da08261107b565b610daa8185611086565b9350610dba818560208601611203565b610dc38161139e565b840191505092915050565b6000610ddb601d83611086565b91507f54686520626f6f6b2069732063757272656e746c79206f6e206c6f616e0000006000830152602082019050919050565b6000610e1b602b83611086565b91507f596f7520617265206e6f7420617574686f726973656420746f2064656c65746560008301527f207468697320626f6f6b2e0000000000000000000000000000000000000000006020830152604082019050919050565b6000610e81601483611086565b91507f496e636f72726563742066756e642073656e742e0000000000000000000000006000830152602082019050919050565b610ebd816111ea565b82525050565b6000602082019050610ed86000830184610d77565b92915050565b6000602082019050610ef36000830184610d86565b92915050565b600060a0820190508181036000830152610f138188610d95565b90508181036020830152610f278187610d95565b9050610f366040830186610d86565b610f436060830185610eb4565b610f506080830184610d77565b9695505050505050565b60006020820190508181036000830152610f7381610dce565b9050919050565b60006020820190508181036000830152610f9381610e0e565b9050919050565b60006020820190508181036000830152610fb381610e74565b9050919050565b6000602082019050610fcf6000830184610eb4565b92915050565b6000608082019050610fea6000830187610eb4565b610ff76020830186610eb4565b6110046040830185610eb4565b6110116060830184610d77565b95945050505050565b6000604051905081810181811067ffffffffffffffff821117156110415761104061136f565b5b8060405250919050565b600067ffffffffffffffff8211156110665761106561136f565b5b601f19601f8301169050602081019050919050565b600081519050919050565b600082825260208201905092915050565b60006110a2826111ea565b91506110ad836111ea565b9250827fffffffffffffffffffffffffffffffffffffffffffffffffffffffffffffffff038211156110e2576110e16112e2565b5b828201905092915050565b60006110f8826111ea565b9150611103836111ea565b92508261111357611112611311565b5b828204905092915050565b6000611129826111ea565b9150611134836111ea565b9250817fffffffffffffffffffffffffffffffffffffffffffffffffffffffffffffffff048311821515161561116d5761116c6112e2565b5b828202905092915050565b6000611183826111ea565b915061118e836111ea565b9250828210156111a1576111a06112e2565b5b828203905092915050565b60006111b7826111ca565b9050919050565b60008115159050919050565b600073ffffffffffffffffffffffffffffffffffffffff82169050919050565b6000819050919050565b82818337600083830152505050565b60005b83811015611221578082015181840152602081019050611206565b83811115611230576000848401525b50505050565b6000600282049050600182168061124e57607f821691505b6020821081141561126257611261611340565b5b50919050565b6000611273826111ea565b91507fffffffffffffffffffffffffffffffffffffffffffffffffffffffffffffffff8214156112a6576112a56112e2565b5b600182019050919050565b60006112bc826111ea565b91506112c7836111ea565b9250826112d7576112d6611311565b5b828206905092915050565b7f4e487b7100000000000000000000000000000000000000000000000000000000600052601160045260246000fd5b7f4e487b7100000000000000000000000000000000000000000000000000000000600052601260045260246000fd5b7f4e487b7100000000000000000000000000000000000000000000000000000000600052602260045260246000fd5b7f4e487b7100000000000000000000000000000000000000000000000000000000600052604160045260246000fd5b6000601f19601f8301169050919050565b6113b8816111ea565b81146113c357600080fd5b5056fea264697066735822122073906f47de98f4f770a3cb7fdc019172897086915469676166daf104fe81f54e64736f6c63430008000033",
  "source": "//SPDX-License-Identifier: GPL-3.0\r\npragma solidity ^0.8.0;\r\n\r\nabstract contract Context {\r\n   function _msgSender() internal view virtual returns (address) {\r\n       return msg.sender;\r\n   }\r\n\r\n   function _msgData() internal view virtual returns (bytes calldata) {\r\n       this; // silence state mutability warning without generating bytecode - see https://github.com/ethereum/solidity/issues/2691\r\n       return msg.data;\r\n   }\r\n\r\n   function _msgValue() internal view virtual returns (uint256 value) {\r\n       return msg.value;\r\n   }\r\n}\r\n\r\nabstract contract Owner is Context {\r\n   address public owner;\r\n\r\n   constructor () {\r\n       owner = _msgSender();\r\n   }\r\n\r\n   /**\r\n    * @dev Throws if called by any account other than the owner.\r\n    */\r\n    modifier onlyOwner() {\r\n        require(_msgSender() == owner);\r\n        _;\r\n    }\r\n\r\n    /**\r\n     * @dev Check if the current caller is the contract owner.\r\n     */\r\n     function isOwner() internal view returns(bool) {\r\n         return owner == _msgSender();\r\n     }\r\n}\r\n\r\ncontract Library is Owner {\r\n  \r\n   struct Book {\r\n       string name;\r\n       string description;\r\n       bool valid; // false if been borrowed\r\n       uint256 price; // TRX per day\r\n       address owner; // owner of the book\r\n   }\r\n\r\n   uint256 public bookId;\r\n\r\n   mapping (uint256 => Book) public books;\r\n\r\n   struct Tracking {\r\n       uint256 bookId;\r\n       uint256 startTime; // start time, in timestamp\r\n       uint256 endTime; // end time, in timestamp\r\n       address borrower; // borrower's address\r\n   }\r\n\r\n   uint256 public trackingId;\r\n\r\n   mapping(uint256 => Tracking) public trackings;\r\n\r\n   /**\r\n    * @dev Add a Book with predefined `name`, `description` and `price`\r\n    * to the library.\r\n    *\r\n    * Returns a boolean value indicating whether the operation succeeded.\r\n    *\r\n    * Emits a {NewBook} event.\r\n    */\r\n   function addBook(string memory name, string memory description, uint256 price) public returns (bool success) {\r\n       Book memory book = Book(name, description, true, price, _msgSender());\r\n\r\n       books[bookId] = book;\r\n\r\n       emit NewBook(bookId++);\r\n\r\n       return true;\r\n   }\r\n\r\n   /**\r\n    * @dev Borrow a book has `_bookId`. The rental period starts from\r\n    * `startTime` ends with `endTime`.\r\n    *\r\n    * Returns a boolean value indicating whether the operation succeeded.\r\n    *\r\n    * Emits a `NewRental` event.\r\n    */\r\n   function borrowBook(uint256 _bookId, uint256 startTime, uint256 endTime) public payable returns (bool) {\r\n       Book storage book = books[_bookId];\r\n\r\n       require(book.valid == true, \"The book is currently on loan\");\r\n\r\n       require(_msgValue() == book.price * _days(startTime, endTime), \"Incorrect fund sent.\");\r\n\r\n       _sendTRX(book.owner, _msgValue());\r\n\r\n       _createTracking(_bookId, startTime, endTime);\r\n\r\n       emit NewRental(_bookId, trackingId++);\r\n\r\n       return true;\r\n   }\r\n\r\n   /**\r\n    * @dev Delete a book from the library. Only the book's owner or the\r\n    * library's owner is authorised for this operation.\r\n    *\r\n    * Returns a boolean value indicating whether the operation succeeded.\r\n    *\r\n    * Emits a `DeleteBook` event.\r\n    */\r\n   function deleteBook(uint256 _bookId) public returns(bool success) {\r\n       require(_msgSender() == books[_bookId].owner || isOwner(),\r\n               \"You are not authorised to delete this book.\");\r\n      \r\n       delete books[_bookId];\r\n\r\n       emit DeleteBook(_bookId);\r\n\r\n       return true;\r\n   }\r\n\r\n   /**\r\n    * @dev Calculate the number of days a book is rented out.\r\n    */\r\n   function _days(uint256 startTime, uint256 endTime) internal pure returns(uint256) {\r\n       if ((endTime - startTime) % uint256(86400) == 0) {\r\n           return (endTime - startTime) / uint256(86400);\r\n       } else {\r\n           return (endTime - startTime) / uint256(86400) + uint256(1);\r\n       }\r\n   }\r\n   /**\r\n    * @dev Send TRX to the book's owner.\r\n    */\r\n   function _sendTRX(address receiver, uint256 value) internal {\r\n       payable(address(uint160(receiver))).transfer(value);\r\n   }\r\n\r\n   /**\r\n    * @dev Create a new rental tracking.\r\n    */\r\n   function _createTracking(uint256 _bookId, uint256 startTime, uint256 endTime) internal {\r\n         trackings[trackingId] = Tracking(_bookId, startTime, endTime, _msgSender());\r\n\r\n         Book storage book = books[_bookId];\r\n\r\n         book.valid = false;\r\n   }\r\n\r\n\r\n\r\n   /**\r\n    * @dev Emitted when a new book is added to the library.\r\n    * Note `bookId` starts from 0.\r\n    */\r\n   event NewBook(uint256 indexed bookId);\r\n\r\n   /**\r\n    * @dev Emitted when a new book rental is made.\r\n    * Note `trackingId` and `bookId` start from 0.\r\n    */\r\n   event NewRental(uint256 indexed bookId, uint256 indexed trackingId);\r\n\r\n   /**\r\n    * @dev Emitted when a book is deleted from the library.\r\n    */\r\n   event DeleteBook(uint256 indexed bookId);\r\n\r\n}",
  "sourcePath": "C:/Users/wilkn/Desktop/HACKATHON PROJECTS/TRON/CactusChain/contracts/Library.sol",
  "compiler": {
    "name": "solc",
    "version": "0.8.0+commit.7c2e6412.Emscripten.clang"
  },
  "schemaVersion": "2.0.1",
  "updatedAt": "2022-11-11T06:55:06.990Z"
}